:020000040000FA
:100000000C945D000C9485000C9485000C94850084
:100010000C9485000C9485000C9485000C9485004C
:100020000C9485000C9485000C9485000C9485003C
:100030000C9485000C9485000C9485000C9485002C
:100040000C9416040C9485000C94E4030C94BE03E9
:100050000C9485000C9485000C9485000C9485000C
:100060000C9485000C94850000000008000201003B
:100070000003040700000000000000000000000072
:10008000250028002B0000000000240027002A0083
:10009000040404040404040402020202020203032E
:1000A0000303030301020408102040800102040836
:1000B0001020010204081020600411241FBECFEF9D
:1000C000D8E0DEBFCDBF21E0A4E3B1E001C01D92C6
:1000D000A63FB207E1F711E0A0E0B1E0E6EFFFE0F4
:1000E00002C005900D92A433B107D9F710E0CDE519
:1000F000D0E004C02197FE010E94F805CC35D1075D
:10010000C9F70E94AA040C94F9070C94000090E02F
:10011000FC01EC55FF4F249180579F4FFC018491C7
:10012000882399F090E0880F991FFC01EA57FF4F50
:10013000A591B491FC01E458FF4F859194918FB73C
:10014000F894EC91E22BEC938FBF0895AF92BF929D
:10015000CF92DF92EF92FF920F931F93CF93DF9393
:100160006C017B018B01040F151FEB015E01AE18C2
:10017000BF08C017D10759F06991D601ED91FC91E4
:100180000190F081E02DC6010995892B79F7C50111
:10019000DF91CF911F910F91FF90EF90DF90CF9063
:1001A000BF90AF900895FC01538D448D252F30E012
:1001B000842F90E0821B930B541710F0CF96089574
:1001C00001970895FC01918D828D981761F0A28DA1
:1001D000AE0FBF2FB11D5D968C91928D9F5F9F7367
:1001E000928F90E008958FEF9FEF08952FB7F894C6
:1001F0008091390190913A01A0913B01B0913C016D
:100200002FBF8093450190934601A0934701B0937F
:1002100048018DE391E00E94E20097FF26C02FB7CE
:10022000F8948091390190913A01A0913B01B091ED
:100230003C012FBF4091450150914601609147011B
:1002400070914801841B950BA60BB70B409141019F
:1002500050914201609143017091440184179507C8
:10026000A607B707B0F28FEF9FEF0895FC01918DBD
:10027000828D981731F0828DE80FF11D858D90E009
:1002800008958FEF9FEF0895FC01918D228D892FA6
:1002900090E0805C9F4F821B91098F73992708958E
:1002A0008DE391E00E94440121E0892B09F420E0D4
:1002B000822F089580E090E0892B29F00E94500160
:1002C00081110C9400000895FC01A48DA80FB92F92
:1002D000B11DA35ABF4F2C91848D90E001968F736E
:1002E0009927848FA689B7892C93A089B1898C918D
:1002F000837080648C93938D848D981306C00288DC
:10030000F389E02D80818F7D80830895EF92FF92A5
:100310000F931F93CF93DF93EC0181E0888F9B8D28
:100320008C8D98131AC0E889F989808185FF15C0E2
:100330009FB7F894EE89FF896083E889F989808105
:100340008370806480839FBF81E090E0DF91CF91D4
:100350001F910F91FF90EF900895F62E0B8D10E0F6
:100360000F5F1F4F0F731127E02E8C8D8E110CC065
:100370000FB607FCFACFE889F989808185FFF5CFB0
:10038000CE010E946401F1CFEB8DEC0FFD2FF11D2A
:10039000E35AFF4FF0829FB7F8940B8FEA89FB89ED
:1003A00080818062CFCFCF93DF93EC01888D88234B
:1003B000B9F0AA89BB89E889F9898C9185FD03C0C8
:1003C000808186FD0DC00FB607FCF7CF8C9185FFAD
:1003D000F2CF808185FFEDCFCE010E946401E9CF8D
:1003E000DF91CF91089590E0FC01E859FF4F2491EF
:1003F000FC01EC55FF4F3491FC01E057FF4FE491B5
:10040000EE23C9F0222339F0233001F1A8F4213082
:1004100019F1223029F1F0E0EE0FFF1FE458FF4FF1
:10042000A591B4918FB7F894EC91611126C03095E5
:100430003E233C938FBF08952730A9F02830C9F0A0
:10044000243049F7809180008F7D03C08091800027
:100450008F7780938000DFCF84B58F7784BDDBCF2B
:1004600084B58F7DFBCF8091B0008F778093B000F3
:10047000D2CF8091B0008F7DF9CF3E2BDACF089597
:1004800090E080E008950F931F93CF93DF93EC01EA
:1004900088819981009759F02A813B812617370777
:1004A00030F081E0DF91CF911F910F9108958B0182
:1004B0006F5F7F4F0E942307009759F099838883CD
:1004C0001B830A832C813D81232B59F7FC01108269
:1004D000E8CF80E0E7CFCF93DF93EC0160E08E813F
:1004E0000E94F30161E08E810E94F30160E08E8141
:1004F0000E94F3018BE891E00197F1F7DF91CF9132
:100500000895CF92DF92EF92FF920F931F93CF93B4
:10051000DF936C017C0187E0E80EF11CD0E0C0E0C5
:10052000062F10E0B8010C2E02C0759567950A944D
:10053000E2F76170F70181917F010E94F30121963A
:10054000C430D10579F7C601DF91CF911F910F918A
:10055000FF90EF90DF90CF900C946B02CF92DF92E0
:10056000EF92FF920F931F93CF93DF93EC01F62E40
:10057000642F8C810E94F3018D818F3F19F060E020
:100580000E94F3010F2D10E08F8584FF25C06E01BE
:1005900087E0C80ED11CF12CE12CB8010E2C02C052
:1005A000759567950A94E2F76170F60181916F0184
:1005B0000E94F301FFEFEF1AFF0A88E0E816F1044A
:1005C00061F7CE01DF91CF911F910F91FF90EF90D6
:1005D000DF90CF900C946B02B80184E0759567951D
:1005E0008A95E1F7CE010E9481026F2DCE01DF9145
:1005F000CF911F910F91FF90EF90DF90CF900C94CF
:100600008102CF93DF93823029F49091E9019860C1
:100610009093E9018093ED011092EE0180E48093C4
:10062000EF0180E18093F00180E58093F1018091FA
:10063000DE010E9487008091DF018F3F11F00E9450
:1006400087008091E0010E948700CAEDD1E09E0101
:100650002A5D31408091E90184FD0AC084E090E088
:100660002196281739073CF48E810E948700EFCF2E
:1006700088E090E0F5CF8BE39DE00197F1F760E033
:100680008091DE010E94F30160E08091E0010E9410
:10069000F3018091DF018F3F19F060E00E94F301C8
:1006A0006091E90164FD45C063E08AED91E00E943C
:1006B0008102CBE4D6E4CE010197F1F763E08AED45
:1006C00091E00E9481022197F1F763E08AED91E0C9
:1006D0000E94810283E592E00197F1F762E08AEDE2
:1006E00091E00E9481026091E901606240E08AED40
:1006F00091E00E94AE0284E08093EA0140E06CE069
:100700008AED91E00E94AE0240E061E08AED91E066
:100710000E94AE028BE39FE10197F1F782E08093A4
:10072000EB0140E066E08AED91E0DF91CF910C941F
:10073000AE02606240E08AED91E00E94AE028BE47E
:1007400096E40197F1F76091E901606240E08AED7B
:1007500091E00E94AE0283E592E00197F1F760918B
:10076000E901606240E08AED91E00E94AE02BBCFF9
:1007700041E00E94AE0281E090E008951F920F9246
:100780000FB60F9211242F933F934F935F936F9364
:100790007F938F939F93AF93BF93EF93FF938DE3DB
:1007A00091E00E946401FF91EF91BF91AF919F9101
:1007B0008F917F916F915F914F913F912F910F900A
:1007C0000FBE0F901F9018951F920F920FB60F92A9
:1007D00011242F938F939F93EF93FF93E0914D01FB
:1007E000F0914E018081E0915301F091540182FD1E
:1007F0001BC09081809156018F5F8F7320915701AC
:10080000821741F0E0915601F0E0E35CFE4F958FD6
:1008100080935601FF91EF919F918F912F910F90AF
:100820000FBE0F901F9018958081F4CF1F920F92EA
:100830000FB60F9211242F933F938F939F93AF93F3
:10084000BF938091390190913A01A0913B01B09101
:100850003C013091380123E0230F2D3758F50196E4
:10086000A11DB11D209338018093390190933A0165
:10087000A0933B01B0933C018091340190913501EC
:10088000A0913601B09137010196A11DB11D809351
:10089000340190933501A0933601B0933701BF9195
:1008A000AF919F918F913F912F910F900FBE0F901D
:1008B0001F90189526E8230F0296A11DB11DD2CFD7
:1008C000EDE3F1E01382128288EE93E0A0E0B0E065
:1008D00084839583A683B7838AE091E091838083A4
:1008E00085EC90E09587848784EC90E097878687F5
:1008F00080EC90E0918B808B81EC90E0938B828BED
:1009000082EC90E0958B848B86EC90E0978B868BC5
:10091000118E128E138E148EEAEDF1E01382128284
:100920008CE191E09183808387E084838FEF8583DE
:1009300086E0868385E0878384E0808783E0818703
:1009400082E082871386148615861686178681E0D4
:100950000C940103CF93DF93CDB7DEB728970FB682
:10096000F894DEBF0FBECDBF789484B5826084BD9D
:1009700084B5816084BD85B5826085BD85B58160A3
:1009800085BD80916E00816080936E001092810021
:1009900080918100826080938100809181008160DC
:1009A000809381008091800081608093800080919D
:1009B000B10084608093B1008091B0008160809329
:1009C000B00080917A00846080937A0080917A00F0
:1009D000826080937A0080917A00816080937A00AF
:1009E00080917A00806880937A001092C100E09133
:1009F0004D01F0914E0182E08083E0914901F09138
:100A00004A011082E0914B01F0914C018FEC808300
:100A100010925501E0915101F091520186E08083DE
:100A2000E0914F01F0915001808180618083E091DD
:100A30004F01F0915001808188608083E0914F01E7
:100A4000F0915001808180688083E0914F01F091A6
:100A5000500180818F7D808382E00E94010388E0C5
:100A60000E9487008BE3C82E8FE1D82E90E0E92EFC
:100A700090E0F92E8DE391E00E94440118161906CA
:100A80000CF073C01A8219821C821B821E821D8286
:100A900070E060E0CE0101960E94430229813A8114
:100AA00081112BC02115310519F0C9010E949A0648
:100AB0001A8219821E821D821C821B820E94F600ED
:100AC00097FD23C08F8318860D811E810F5F1F4FF6
:100AD000B801CE0101960E944302882379F329814F
:100AE0003A818D819E81BE01695F7F4F820F931F86
:100AF0000E94F2071E830D83E1CF1E821D8262E3F6
:100B000071E0C9010E94F207D9CF40E061E08AEDAF
:100B100091E00E94AE02C6010197F1F74D815E811E
:100B200069817A818AED91E00E94A6008D819E8183
:100B3000892BA9F009811A8164E271E0C8010E9441
:100B4000E90761E0892B41F06BE271E0C8010E9486
:100B5000E907892B21F460E088E00E94F301898194
:100B60009A81009711F00E949A06E114F10409F4A9
:100B700081CF0E945001882309F47CCF0E9400009D
:100B800079CF2F923F924F925F926F927F928F9286
:100B90009F92AF92BF92CF92DF92EF92FF920F930C
:100BA0001F93CF93DF93CDB7DEB7CA1BDB0B0FB616
:100BB000F894DEBF0FBECDBF09942A8839884888D3
:100BC0005F846E847D848C849B84AA84B984C88469
:100BD000DF80EE80FD800C811B81AA81B981CE0F60
:100BE000D11D0FB6F894DEBF0FBECDBFED01089545
:100BF000EE0FFF1F0590F491E02D09940F931F93C2
:100C0000CF93DF938230910510F482E090E0E09181
:100C1000F401F091F50130E020E0B0E0A0E0309781
:100C200099F42115310509F44AC0281B390B2430E9
:100C30003105D8F58A819B816115710589F1FB0128
:100C400093838283FE0111C040815181028113810F
:100C500048175907E0F04817590799F4109761F0C1
:100C600012960C93129713961C933296CF01DF9134
:100C7000CF911F910F9108950093F4011093F50106
:100C8000F4CF2115310551F04217530738F0A9016F
:100C9000DB019A01BD01DF01F801C1CFEF01F9CFFE
:100CA0009093F5018093F401CDCFFE01E20FF31F85
:100CB000819391932250310939832883D7CF209192
:100CC000F2013091F301232B41F420910201309184
:100CD00003013093F3012093F20120910001309140
:100CE00001012115310541F42DB73EB740910401B2
:100CF00050910501241B350BE091F201F091F301B5
:100D0000E217F307A0F42E1B3F0B2817390778F0E2
:100D1000AC014E5F5F4F2417350748F04E0F5F1F41
:100D20005093F3014093F201819391939FCFF0E0B0
:100D3000E0E09CCFCF93DF930097E9F0FC0132977E
:100D400013821282A091F401B091F501ED0130E01F
:100D500020E01097A1F420813181820F931F209110
:100D6000F2013091F3012817390709F061C0F093BF
:100D7000F301E093F201DF91CF910895EA01CE17DC
:100D8000DF07E8F54A815B819E0141155105B1F706
:100D9000E901FB83EA8349915991C40FD51FEC17F0
:100DA000FD0761F4808191810296840F951FE9010E
:100DB00099838883828193819B838A83F0E0E0E03A
:100DC00012968D919C9113970097B9F52D913C91B6
:100DD0001197CD010296820F931F2091F20130915D
:100DE000F3012817390739F6309751F51092F501BC
:100DF0001092F401B093F301A093F201BCCFD3831E
:100E0000C28340815181840F951FC817D90761F4AF
:100E10004E5F5F4F88819981480F591F51834083EE
:100E20008A819B81938382832115310509F0B0CF9C
:100E3000F093F501E093F4019ECFFD01DC01C0CFFA
:100E400013821282D7CFB0E0A0E0E9E2F7E00C9481
:100E5000C3058C01009751F4CB010E94FE058C0163
:100E6000C801CDB7DEB7E0E10C94DF05FC01E60F69
:100E7000F71F9C0122503109E217F30708F49DC0C7
:100E8000D901CD91DC911197C617D70798F0C530DD
:100E9000D10530F3CE0104978617970708F3C61BD8
:100EA000D70B2297C193D1936D937C93CF010E946E
:100EB0009A06D6CF5B01AC1ABD0A4C018C0E9D1E62
:100EC000A091F401B091F501512C412CF12CE12CB1
:100ED000109731F58091F2019091F30188159905F1
:100EE00009F05CC04616570608F058C08091000112
:100EF00090910101009741F48DB79EB74091040194
:100F000050910501841B950BE817F90708F055C0AF
:100F1000F093F301E093F201F90171836083A0CFB4
:100F20008D919C91119712966C90129713967C90CC
:100F30001397A815B90559F56C0142E0C40ED11CF0
:100F4000CA14DB0420F1AC014A195B09DA011296DC
:100F5000159780F06282738251834083D9016D932B
:100F60007C93E114F10471F0D7011396FC93EE9396
:100F7000129776CF22968C0F9D1FF9019183808363
:100F8000F301EFCFF093F501E093F40169CF481638
:100F9000590608F42C017D01D3019ACFCB010E94A0
:100FA000FE057C01009749F0AE01B8010E94E00700
:100FB000C8010E949A06870153CF10E000E050CF8D
:100FC000FB01DC0102C001900D9241505040D8F766
:100FD0000895FB01DC018D91019080190110D9F376
:100FE000990B0895FB01DC0101900D920020E1F7BF
:100FF0000895F894FFCF0000F60180000000000083
:101000008601A600D300D3014401E20036010000AE
:101010000000B803A60040023F024C45445F4F4E1B
:0A102000004C45445F4F46460000B7
:107E0000112484B714BE81FFF0D085E080938100F7
:107E100082E08093C00088E18093C10086E0809377
:107E2000C20080E18093C4008EE0C9D0259A86E02C
:107E300020E33CEF91E0309385002093840096BBD3
:107E4000B09BFECF1D9AA8958150A9F7CC24DD24C4
:107E500088248394B5E0AB2EA1E19A2EF3E0BF2EE7
:107E6000A2D0813461F49FD0082FAFD0023811F036
:107E7000013811F484E001C083E08DD089C08234E0
:107E800011F484E103C0853419F485E0A6D080C0E4
:107E9000853579F488D0E82EFF2485D0082F10E0AE
:107EA000102F00270E291F29000F111F8ED06801E7
:107EB0006FC0863521F484E090D080E0DECF843638
:107EC00009F040C070D06FD0082F6DD080E0C81688
:107ED00080E7D80618F4F601B7BEE895C0E0D1E017
:107EE00062D089930C17E1F7F0E0CF16F0E7DF06D8
:107EF00018F0F601B7BEE89568D007B600FCFDCFD4
:107F0000A601A0E0B1E02C9130E011968C91119780
:107F100090E0982F8827822B932B1296FA010C0160
:107F200087BEE89511244E5F5F4FF1E0A038BF0790
:107F300051F7F601A7BEE89507B600FCFDCF97BE46
:107F4000E89526C08437B1F42ED02DD0F82E2BD052
:107F50003CD0F601EF2C8F010F5F1F4F84911BD097
:107F6000EA94F801C1F70894C11CD11CFA94CF0C13
:107F7000D11C0EC0853739F428D08EE10CD085E9AC
:107F80000AD08FE07ACF813511F488E018D01DD067
:107F900080E101D065CF982F8091C00085FFFCCF94
:107FA0009093C60008958091C00087FFFCCF809118
:107FB000C00084FD01C0A8958091C6000895E0E648
:107FC000F0E098E1908380830895EDDF803219F02E
:107FD00088E0F5DFFFCF84E1DECF1F93182FE3DFCA
:107FE0001150E9F7F2DF1F91089580E0E8DFEE27F6
:047FF000FF270994CA
:027FFE00040479
:00000001FF
